{
  "contractName": "Bridge",
  "abi": [
    {
      "anonymous": false,
      "inputs": [
        {
          "indexed": false,
          "internalType": "address",
          "name": "sender",
          "type": "address"
        },
        {
          "indexed": false,
          "internalType": "uint256",
          "name": "amount",
          "type": "uint256"
        }
      ],
      "name": "Deposit",
      "type": "event"
    },
    {
      "constant": true,
      "inputs": [
        {
          "internalType": "uint256",
          "name": "",
          "type": "uint256"
        }
      ],
      "name": "depositedAccts",
      "outputs": [
        {
          "internalType": "address",
          "name": "",
          "type": "address"
        }
      ],
      "payable": false,
      "stateMutability": "view",
      "type": "function"
    },
    {
      "constant": false,
      "inputs": [],
      "name": "depositEth",
      "outputs": [],
      "payable": true,
      "stateMutability": "payable",
      "type": "function"
    }
  ],
  "bytecode": "0x608060405234801561001057600080fd5b5061031d806100206000396000f3fe6080604052600436106100295760003560e01c8063439370b11461002e5780637f5f723914610038575b600080fd5b6100366100b3565b005b34801561004457600080fd5b506100716004803603602081101561005b57600080fd5b810190808035906020019092919050505061027c565b604051808273ffffffffffffffffffffffffffffffffffffffff1673ffffffffffffffffffffffffffffffffffffffff16815260200191505060405180910390f35b6100bb6102b8565b6000803373ffffffffffffffffffffffffffffffffffffffff1673ffffffffffffffffffffffffffffffffffffffff1681526020019081526020016000206040518060400160405290816000820160009054906101000a900473ffffffffffffffffffffffffffffffffffffffff1673ffffffffffffffffffffffffffffffffffffffff1673ffffffffffffffffffffffffffffffffffffffff168152602001600182015481525050905033816000019073ffffffffffffffffffffffffffffffffffffffff16908173ffffffffffffffffffffffffffffffffffffffff16815250503481602001818152505060013390806001815401808255809150509060018203906000526020600020016000909192909190916101000a81548173ffffffffffffffffffffffffffffffffffffffff021916908373ffffffffffffffffffffffffffffffffffffffff160217905550507fe1fffcc4923d04b559f4d29a8bfc6cda04eb5b0d3c460751c2402c5c5cc9109c3334604051808373ffffffffffffffffffffffffffffffffffffffff1673ffffffffffffffffffffffffffffffffffffffff1681526020018281526020019250505060405180910390a150565b6001818154811061028957fe5b906000526020600020016000915054906101000a900473ffffffffffffffffffffffffffffffffffffffff1681565b6040518060400160405280600073ffffffffffffffffffffffffffffffffffffffff16815260200160008152509056fea265627a7a723158207d19d55a40aa4ce4ce27514ff235205119a77cdd2a0ce337b4f9c5784e75514564736f6c63430005100032",
  "source": "pragma solidity >=0.4.22 <0.8.0;\n\ncontract Bridge {\n    struct Deposited {\n       address owner;\n       uint amount;\n    }\n    mapping(address => Deposited) deposited;\n    address[] public depositedAccts;\n\n    event Deposit(address sender, uint amount);\n\n    function depositEth() public payable{\n        Deposited memory depos = deposited[msg.sender];\n        depos.owner = msg.sender;\n        depos.amount = msg.value;\n        depositedAccts.push(msg.sender);\n        emit Deposit(msg.sender, msg.value);\n    }\n}\n",
  "sourcePath": "/Users/macbook/Documents/freelance/go/src/github.com/bridge/contracts/contracts/Bridge.sol",
  "compiler": {
    "name": "solc",
    "version": "0.5.16+commit.9c3226ce.Emscripten.clang"
  },
  "schemaVersion": "3.2.5",
  "updatedAt": "2020-09-30T15:31:47.051Z",
  "networkType": "ethereum",
  "devdoc": {
    "methods": {}
  },
  "userdoc": {
    "methods": {}
  }
}